{"abi":[{"anonymous":false,"inputs":[{"indexed":false,"internalType":"uint256","name":"_favouritenumber","type":"uint256"}],"name":"ValueChanged","type":"event"},{"inputs":[],"name":"multiply","outputs":[],"stateMutability":"nonpayable","type":"function"},{"inputs":[],"name":"retrieve","outputs":[{"internalType":"uint256","name":"","type":"uint256"}],"stateMutability":"view","type":"function"},{"inputs":[{"internalType":"uint256","name":"favouritenumber","type":"uint256"}],"name":"store","outputs":[],"stateMutability":"nonpayable","type":"function"}],"bytecode":"608060405234801561001057600080fd5b5061017a806100206000396000f3fe608060405234801561001057600080fd5b50600436106100415760003560e01c80632e64cec1146100465780636057361d1461005b578063f3593cd014610070575b600080fd5b60005460405190815260200160405180910390f35b61006e6100693660046100fe565b610078565b005b61006e6100b3565b60008190556040518181527f93fe6d397c74fdf1402a8b72e47b68512f0510d7b98a4bc4cbdf6ac7108b3c599060200160405180910390a150565b6000546100c09080610117565b507f93fe6d397c74fdf1402a8b72e47b68512f0510d7b98a4bc4cbdf6ac7108b3c596000546040516100f491815260200190565b60405180910390a1565b60006020828403121561011057600080fd5b5035919050565b600081600019048311821515161561013f57634e487b7160e01b600052601160045260246000fd5b50029056fea2646970667358221220c163a404e997fb1a2d7cf5ff1aa5f634c27ded78201ed294331e175bd0b401f664736f6c634300080d0033","bytecodeSha1":"7c895321dd33a521500d412cf90559194a9ecd79","compiler":{"evm_version":"istanbul","optimizer":{"enabled":true,"runs":200},"version":"0.8.13+commit.abaa5c0e"},"contractName":"BoxV2","language":"Solidity","natspec":{"kind":"dev","methods":{},"version":1},"opcodes":"PUSH1 0x80 PUSH1 0x40 MSTORE CALLVALUE DUP1 ISZERO PUSH2 0x10 JUMPI PUSH1 0x0 DUP1 REVERT JUMPDEST POP PUSH1 0x4 CALLDATASIZE LT PUSH2 0x41 JUMPI PUSH1 0x0 CALLDATALOAD PUSH1 0xE0 SHR DUP1 PUSH4 0x2E64CEC1 EQ PUSH2 0x46 JUMPI DUP1 PUSH4 0x6057361D EQ PUSH2 0x5B JUMPI DUP1 PUSH4 0xF3593CD0 EQ PUSH2 0x70 JUMPI JUMPDEST PUSH1 0x0 DUP1 REVERT JUMPDEST PUSH1 0x0 SLOAD PUSH1 0x40 MLOAD SWAP1 DUP2 MSTORE PUSH1 0x20 ADD PUSH1 0x40 MLOAD DUP1 SWAP2 SUB SWAP1 RETURN JUMPDEST PUSH2 0x6E PUSH2 0x69 CALLDATASIZE PUSH1 0x4 PUSH2 0xFE JUMP JUMPDEST PUSH2 0x78 JUMP JUMPDEST STOP JUMPDEST PUSH2 0x6E PUSH2 0xB3 JUMP JUMPDEST PUSH1 0x0 DUP2 SWAP1 SSTORE PUSH1 0x40 MLOAD DUP2 DUP2 MSTORE PUSH32 0x93FE6D397C74FDF1402A8B72E47B68512F0510D7B98A4BC4CBDF6AC7108B3C59 SWAP1 PUSH1 0x20 ADD PUSH1 0x40 MLOAD DUP1 SWAP2 SUB SWAP1 LOG1 POP JUMP JUMPDEST PUSH1 0x0 SLOAD PUSH2 0xC0 SWAP1 DUP1 PUSH2 0x117 JUMP JUMPDEST POP PUSH32 0x93FE6D397C74FDF1402A8B72E47B68512F0510D7B98A4BC4CBDF6AC7108B3C59 PUSH1 0x0 SLOAD PUSH1 0x40 MLOAD PUSH2 0xF4 SWAP2 DUP2 MSTORE PUSH1 0x20 ADD SWAP1 JUMP JUMPDEST PUSH1 0x40 MLOAD DUP1 SWAP2 SUB SWAP1 LOG1 JUMP JUMPDEST PUSH1 0x0 PUSH1 0x20 DUP3 DUP5 SUB SLT ISZERO PUSH2 0x110 JUMPI PUSH1 0x0 DUP1 REVERT JUMPDEST POP CALLDATALOAD SWAP2 SWAP1 POP JUMP JUMPDEST PUSH1 0x0 DUP2 PUSH1 0x0 NOT DIV DUP4 GT DUP3 ISZERO ISZERO AND ISZERO PUSH2 0x13F JUMPI PUSH4 0x4E487B71 PUSH1 0xE0 SHL PUSH1 0x0 MSTORE PUSH1 0x11 PUSH1 0x4 MSTORE PUSH1 0x24 PUSH1 0x0 REVERT JUMPDEST POP MUL SWAP1 JUMP INVALID LOG2 PUSH5 0x6970667358 0x22 SLT KECCAK256 0xC1 PUSH4 0xA404E997 0xFB BYTE 0x2D PUSH29 0xF5FF1AA5F634C27DED78201ED294331E175BD0B401F664736F6C634300 ADDMOD 0xD STOP CALLER ","sha1":"c6c1ea756fb739b8f69dd8c9229ac63008fc5cd6","source":"// SPDX-License-Identifier: MIT\n\npragma solidity ^0.8.0;\n\ncontract BoxV2 {\n    uint256 private _favouritenumber;\n    event ValueChanged(uint256 _favouritenumber);\n\n    function store(uint256 favouritenumber) public {\n        _favouritenumber = favouritenumber;\n        emit ValueChanged(_favouritenumber);\n    }\n\n    function retrieve() public view returns (uint256) {\n        return _favouritenumber;\n    }\n\n    function multiply() public {\n        _favouritenumber * _favouritenumber;\n        emit ValueChanged(_favouritenumber);\n    }\n}\n","sourcePath":"contracts/Boxv2.sol","type":"contract","deployment":{"address":"0xfE79FBC62F8DFf386C78a915A110Cdb32365463A","chainid":"4","blockHeight":10674137}}